:020000040800F2
:10000000E87A00206D02000809390008E53200088E
:1000100005390008C5060008B543000800000000C7
:10002000000000000000000000000000013A00088D
:100030007D080008000000000D390008E93A0008BA
:1000400089020008890200088902000800000000F7
:1000500089020008890200088902000800000000E7
:1000600089020008890200080000000089020008D7
:100070008902000889020008890200088902000834
:100080008902000889020008890200088902000824
:100090008902000889020008890200088902000814
:1000A0008902000889020008890200088902000804
:1000B00089020008890200088902000889020008F4
:1000C00089020008890200088902000889020008E4
:1000D0000000000089020008890200088902000867
:1000E00089020008890200088902000889020008C4
:1000F0008902000889020008890200080000000047
:100100000000000089020008890200088902000836
:100110008902000889020008890200088902000893
:100120008902000889020008890200088902000883
:100130008902000800000000000000008902000899
:10014000890200080000000000000000000000001C
:10015000000000000000000089020008000000000C
:100160000000000000000000890200088902000869
:10017000000000000000000000000000000000007F
:10018000000000000000000000000000000000006F
:10019000000000000000000000000000000000005F
:1001A0000000000000000000890200088902000829
:1001B00089020008890200088902000889020008F3
:1001C0008902000889020008000000000000000009
:1001D000000000000000000000000000890200088C
:1001E000890200080000000000000000000000007C
:1001F00000000000000000000000000000000000FF
:1002000000000000890200088902000800000000C8
:10021000000000008902000800000000000000004B
:10022000000000000000000000000000890200083B
:10023000890200080000000000000000000000002B
:10024000000000000000000000000000890200081B
:100250008902000889020008DFF80CD000F0D6F807
:1002600000480047E1350108E87A00200748804748
:1002700007480047FEE7FEE7FEE7FEE7FEE7FEE78A
:10028000FEE7FEE7FEE7FEE7FEE70000B53B0008FD
:10029000590200082DE9F05F0546002092469B4672
:1002A00088460646814640241BE02846414647468C
:1002B000224600F09AF853465A46C01A914110D38C
:1002C00011461846224600F081F82D1A67EB010806
:1002D0004F4622460120002100F078F817EB000974
:1002E0004E41201EA4F10104DFDC484631462A4677
:1002F0004346BDE8F09F2DE9F0410024061B25464A
:1003000071F1000605DA01240027D0EB070067EB46
:100310000101161E73F1000605DA0027D2EB070271
:10032000012567EB0303FFF7B5FF86460E46174628
:100330009C46AC4204D00025D0EB050E65EB0106CF
:1003400024B10020D2EB000760EB030C704631466D
:100350003A466346BDE8F08140EA01039B0703D0BB
:1003600009E008C9121F08C0042AFAD203E011F8F4
:10037000013B00F8013B521EF9D27047D2B201E0B6
:1003800000F8012B491EFBD270470022F6E710B59A
:1003900013460A4604461946FFF7F0FF204610BDF3
:1003A00030B50B46014600202022012409E021FA45
:1003B00002F59D4205D303FA02F5491B04FA02F542
:1003C0002844151EA2F10102F1DC30BD202A04DB15
:1003D000203A00FA02F1002070479140C2F1200358
:1003E00020FA03F3194390407047202A04DB203A97
:1003F00021FA02F00021704721FA02F3D040C2F145
:10040000200291400843194670470000064C074DF2
:1004100006E0E06840F0010394E8070098471034D4
:10042000AC42F6D3FFF71CFF9C3B0108BC3B010824
:10043000012884BF6FF0010070472DE9F043A7B099
:1004400040F23801C2F20001942251F8201047F224
:10045000D01300FB02F7C2F200036D4610FB023816
:10046000D95105F108008021FFF78FFF01200027F7
:1004700000902846019701F03BFC40F68C40C4F206
:1004800002408169002541F4804181618169C4F2A3
:10049000022501F4804122912299016822AE41F0A7
:1004A0000101016000684FF0020900F00100229094
:1004B00022984FF400702290072428463146CDE957
:1004C00023972597269400F071FA4FF48060CDE9C8
:1004D000220928463146CDE92477269400F066FAB1
:1004E000404603F0E1F9002818BF6FF0030027B081
:1004F000BDE8F08300F034BBB0B540F2E405C2F2D1
:100500000005286810B10138286001D00020B0BD76
:1005100040F69C40C4F20240016840F2004421F4DD
:100520000011C4F2022401602046402100F0C0F90D
:100530002046802100F0BCF9281D00F061FB002856
:1005400018BF6FF00700B0BD2DE9F04FA9B040F221
:10055000E400C2F2000045F200410268C4F200016A
:100560004160511C01602AB10025284629B0BDE830
:10057000F08F00BF041D204600F060FB00284FF004
:100580000005F2D102AE06F1080080214FF080098B
:10059000FFF7FBFE4FF4005002903046039501F048
:1005A000A7FB40F68C46C4F20246306840F2004891
:1005B00040F0020030603068C4F2022800F002000F
:1005C00024902498402024AF24904FF0120A4FF03A
:1005D000040B40463946CDE925A52795CDF8A0B0B6
:1005E00000F0E4F940463946CDE9249ACDE9265594
:1005F000CDF8A0B000F0DAF9306940F400103061B5
:10060000306900F4001001900198204603F0D8F8FA
:1006100030B16FF00705284629B0BDE8F08F00BF64
:100620002046002100F0A2FA0546002818BF6FF00E
:100630000705284629B0BDE8F08F000010B582B04C
:1006400013460A46014640F2E400C2F20000041DCF
:100650004FF4805C2046CDF800C000F049FB58B153
:10066000204600F0E9FA01466FF06500042908BF52
:100670006FF0030002B010BD002002B010BD0000FA
:1006800010B582B013460A46014640F2E400C2F2B9
:100690000000041D4FF4805C2046CDF800C000F03F
:1006A000FBFB58B1204600F0C7FA01466FF0650029
:1006B000042908BF6FF0030002B010BD002002B093
:1006C00010BD0000FEE7000000281CBF6FF0010015
:1006D000704780B540F24000C2F20000026940F26B
:1006E0003C10C2F20000006890476FF0040101EA7C
:1006F000E07080BD00281CBF6FF00100704780B51E
:1007000040F24000C2F20000C26840F23C10C2F267
:100710000000006890476FF0040101EAE07080BDBE
:1007200000281CBF6FF00100704780B540F2400008
:10073000C2F20000C26940F23C10C2F20000006840
:1007400090476FF0040101EAE07080BD70B588B099
:1007500000281EBF6FF0010008B070BD0024C4F275
:10076000022420460421002200F0F4F9022000F0C7
:100770008BF820460421012200F0ECF9022000F061
:1007800083F85220ADF8100040F24950C0F6000046
:10079000029040F2F940C0F60000039040F2816000
:1007A000C0F60000059040F23D60C0F600000690E3
:1007B00040F2F540C0F60000079040F25810C2F237
:1007C000000002A904F058FB20B14FF0FF3008B040
:1007D00070BD00BF40F25814C2F2000401A92046C7
:1007E00004F034FB0028F0D101984EF6CC21884269
:1007F000EBD140F24006C2F2000640F23C153168EF
:10080000C2F2000520462C6088470028DDD155F84B
:10081000040BF268294690470028D6D1002008B082
:1008200070BD000000281CBF6FF00100704780B54C
:1008300040F24000C2F20000826840F23C10C2F276
:100840000000006890476FF0040101EAE07080BD8D
:1008500000281CBF6FF00100704780B540F24000D7
:10086000C2F20000026A40F23C10C2F200000068CE
:1008700090476FF0040101EAE07080BD704700000E
:1008800072B600BFFEE70000B0B5044600F068F99C
:10089000054640F20400C2F200000078611C18BF57
:1008A000044400BF00F05CF9401BA042FAD3B0BD85
:1008B0002DE9F04F82B0002974D047F67F72C0F264
:1008C0002F0202EA90220023002600270125009231
:1008D000019129E001680322B240114301606FF0E9
:1008E000030101EA540103F01C0C0144D1F82080FB
:1008F0000F2404FA0CF428EA04040C628168914382
:100900008160416821EA0E014160C1689143C16084
:10091000019931FA05F205F1010507F1080706F121
:10092000020603F104033DD06C1E012202FA04FE0C
:100930001EEA0109EDD042F20001C4F202414FEA81
:10094000940801F1600C0F225CF828A007F0180B46
:1009500002FA0BF10AEA01028A46009901FA0BF148
:100960008A42B7D142F20002C4F20242D2F88010A9
:1009700021EA0901C2F88010D2F8841021EA0901A5
:10098000C2F88410116821EA09011160516821EA56
:10099000090151605CF8281021EA0A014CF828107E
:1009A00098E700BF02B0BDE8F08F00002DE9F04FDE
:1009B00082B00C68002C00F0C38047F67F72C0F252
:1009C0002F0202EA90224FF0010900920022002635
:1009D0000027012501900FE0BCF1030F5FD100BF9C
:1009E0000C68083734FA05F305F1010506F1020633
:1009F00002F1040200F0A480A5F1010A09FA0AFE3E
:100A000014EA0E0BECD0D1F804C04CF01004122CF8
:100A10001FD16FF0030303EA5A0402F01C0300EB3A
:100A20000409D9F820C05846D1F810B00F2404FAB0
:100A300003F80BF00F042CEA080C04FA03F343EA62
:100A40000C0383460198C9F82030D1F804C04FF058
:100A5000010903680324B4406FEA0408A3430CF0BF
:100A60000304B4402343BCF1120F036017D809FA02
:100A70000CF313F0061FAFD08368CC6803EA0803B9
:100A8000B4402343836043684FEA1C1423EA0E03F7
:100A900004FA0AF42343BCF1030F4360A0D0C368F7
:100AA0008C6803EA0803B44023435FEACC04C360C4
:100AB00096D542F200082AF00303C4F2024808EB7C
:100AC000030EDEF860C007F018040F23A3402CEAE1
:100AD000030C009B03FA04F44CEA0403CEF86030E4
:100AE000D8F800C0D1F804E04CEA0B035FEACE244A
:100AF00058BF2CEA0B03C8F80030D8F804C05FEAEE
:100B00008E234CEA0B0458BF2CEA0B04C8F80440AF
:100B1000D8F884C05FEA8E334CEA0B0458BF2CEA45
:100B20000B04C8F88440D8F880C05FEACE334CEAA2
:100B30000B0458BF2CEA0B04C8F8804050E700BFF4
:100B400002B0BDE8F08F00000069084018BF012026
:100B5000704700001823002A08BF2823C15070479F
:100B600047F26420C2F200000068704790F841200C
:100B7000202A03D190F84020012A01D10220704799
:100B8000242280F841200268136823F001031360D7
:100B9000136823F4805313601368194311601168BC
:100BA00041F001011160202180F84110002180F8FE
:100BB000401008467047000090F84120202A03D1D9
:100BC00090F84020012A01D102207047242280F8A9
:100BD00041200268136823F001031360136823F4B3
:100BE000706343EA01211160116841F00101116055
:100BF000202180F84110002180F8401008467047FD
:100C0000002804BF0120704710B50446242084F852
:100C100041002068016821F001010160204600F0D8
:100C20000DFA0020606484F84100206384F84200DB
:100C300084F8400010BD0000406C704790F84100FF
:100C400070470000002804BF0120704710B504461B
:100C500090F8410028B9002084F84000204600F0B8
:100C6000EFF9242084F8410094E80910E268016853
:100C7000012A21F00101016023F0706101618168A6
:100C800021F40041816003D14CF40041816009E00E
:100C90004CF40441022A816004D1416841F40061AE
:100CA00003E000BF416821F400614160416804F144
:100CB000100341F0007141F400414160C16821F42A
:100CC0000041C1600ECB114341EA0321E269C160DA
:100CD000216A11430160016841F0010101600020B7
:100CE0002021606484F84110206384F8420010BD24
:100CF0002DE9F04782B0044690F84100202803D146
:100D000094F84000012803D1022002B0BDE8F0872A
:100D10000120984617460E4684F84000FFF720FF52
:100D2000216805468A69120425D4222084F84100EE
:100D3000102084F84200002060646762A4F82A80D2
:100D40006063608D40F20008B0F5807F49F60000D6
:100D5000CFF60040C0F2FF1826D351F8042F6FF3EE
:100D60009F2602EA000308F51057FF22B24628E04A
:100D700088690004D9D5204619212A4602F0B4FA20
:100D800000286FD1FFF7ECFE401B21681A28EFD333
:100D900088690004ECD5606C40F02000606420207D
:100DA00084F8410001206EE0628D51F8047F6FF3FA
:100DB0009F26D3B246EA0343B24607EA000608F587
:100DC000923733433B430B602285618D0A9E002995
:100DD00042D04FF0FF0900F580670FE0618D206879
:100DE000218550F8042FC9B24AEA01413A404FF038
:100DF0000073114319430160608D68B3204631468A
:100E00002A4602F0A3FB68BB2068616A406A08704A
:100E1000606A218D01306062481E2085618D013934
:100E20006185618D0029E7D00004E5D1204680214D
:100E300000223346009502F007FB98B9608DB0F5AB
:100E4000807FCBD32068A4F8289050F8041F524626
:100E500039404346CDE700BF204631462A4602F0DE
:100E6000DFFB18B1012002B0BDE8F0872068202127
:100E7000C16142684EF60003CFF600631A4042603B
:100E8000002084F84110002184F8421084F84010BA
:100E900002B0BDE8F08700002DE9F04782B00446BB
:100EA00090F84100202803D194F84000012803D194
:100EB000022002B0BDE8F0870120984617460E4692
:100EC00084F84000FFF74CFE216805468A69120449
:100ED00025D4212084F84100102084F8420000200D
:100EE00060646762A4F82A806063608D40F2000845
:100EF000B0F5807F49F60000CFF60040C0F2FF1841
:100F000026D351F8042F6FF39F2602EA000308F559
:100F10000057FF22B24628E088690004D9D5204650
:100F200019212A4602F0E0F900286DD1FFF718FEDA
:100F3000401B21681A28EFD388690004ECD5606C47
:100F400040F020006064202084F8410001206CE023
:100F5000628D51F8047F6FF39F26D3B246EA0343B4
:100F6000B24607EA000608F5903733433B430B606F
:100F70002285618D0A9E002940D04FF0FF0900F5BF
:100F800080670FE0618D2068218550F8042FC9B279
:100F90004AEA01413A404FF000731143194301609E
:100FA000608D58B3204631462A4602F079FB58BB83
:100FB000606A226810F8011B91626062608D0138DE
:100FC0006085208D01382085618D0029E8D00004DE
:100FD000E6D12046802100223346009502F034FA03
:100FE00090B9608DB0F5807FCCD32068A4F82890AC
:100FF00050F8041F524639404346CEE7204631465A
:101000002A4602F00DFB18B1012002B0BDE8F087BE
:1010100020682021C16142684EF60003CFF60063CC
:101020001A404260002084F84110002184F84210E8
:1010300084F8401002B0BDE8F0870000704700005F
:101040007047000040F20041C4F203010A68D20771
:101050001CBF012070470A6822F004021043086098
:101060000020704740F20041C4F20301086840F0DC
:10107000010200200A60704740F2040047F2642138
:10108000C2F20000C2F2000100780A681044086051
:101090007047000080B5032000F0A6F801F046FB81
:1010A00040F62041C4F20241096843F65C3201F087
:1010B0000F01C0F60102515CC84040F23C01C2F28F
:1010C00000010860042001F0EDFE0F2000F008F898
:1010D00000281CBF012080BD00F058F8002080BD12
:1010E00070B540F20406C2F200063178E1B304465E
:1010F0004EF21000CEF200000068400710D401F05C
:101100002BFF02281CD0012822D078BB40F23C00E3
:10111000C2F20000006831784FF4FA5207E000BFD5
:1011200040F23C00C2F2000000684FF47A72B2FB59
:10113000F1F1B0FBF1F001F0FDFEA8B91BE000BF3A
:1011400030784FF47A71B1FBF0F04FF4004106E0D3
:1011500030784FF47A71B1FBF0F04FF4FA41B1FB03
:10116000F0F001F0E7FE30B1012070BD002001F089
:10117000E1FE0028F8D14FF0FF3021460022002583
:1011800000F006F82846746070BD0000704700004B
:1011900010B54EF60C5CCEF2000CDCF80030C3F358
:1011A000022E8EF00704042C28BF0424BEF1030392
:1011B0004FF0FF3E38BF00230EFA04F4A1439940DC
:1011C0000EFA03F39A43114300F00F02043A62440B
:1011D00009010C3200F16043B0F1FF3FC8BF03F5D5
:1011E0006442117010BD00004EF60C51CEF20001A9
:1011F0000A684FF6FF031A4060F30A2242F080604B
:1012000040F0FD700860704710B540F6284CC4F2FD
:10121000024CDCF80CE0DCF80010DCF80020C2F333
:101220000523DCF80020DCF81040DBB3C4F3CC0469
:1012300002F0100204FB02F201F0030100EE102A9A
:101240000329B8EE400A6FF35F2E31D0022935D062
:1012500001295CF8281C49F20002C1F3C101C0F267
:10126000D03222FA01F101EE101A02EE103AB8EE75
:10127000411AB8EE422A9FED4F3A81EE021A02EE71
:1012800010EA20EE030AB8EE422A30EE020AB7EE68
:10129000002A30EE022A5CF8281C22EE010A89019D
:1012A0002CD527E00021C0E90011816010BD00BFEE
:1012B00001EE103A9FED3E2A04E000BF01EE103A25
:1012C0009FED3D2AB8EE411A82EE012A01EE10EAA6
:1012D0009FED383AB8EE411A20EE030A30EE010ACB
:1012E000B7EE001A30EE011A5CF8281C22EE010A53
:1012F000890103D5DCF80010C90307D4002101607F
:101300005CF8281C890118D41BE000BFDCF80C1025
:10131000B7EE002AC1F3462101EE101AB8EE411AC9
:1013200031EE021A80EE011ABCEEC11A11EE101A4B
:1013300001605CF8281C890103D5DCF800108903E2
:1013400002D4002112E000BFDCF80C10B7EE002A36
:10135000C1F3064101EE101AB8EE411A31EE021A3D
:1013600080EE011ABCEEC11A11EE101A41605CF851
:10137000281C890144BFDCF800105FEA413103D426
:101380000021816010BD00BFDCF80C10B7EE002A10
:10139000C1F3066101EE101AB8EE411A31EE021ADD
:1013A00080EE010ABCEEC00A10EE101A816010BD7A
:1013B00020BCBE4B000000390024744A10B540F632
:1013C0002C4CC4F2024CDCF810E0DCF80010DCF825
:1013D0000020C2F30523DCF80020DCF81440DBB366
:1013E000C4F3CC0402F0100204FB02F201F003018A
:1013F00000EE102A0329B8EE400A6FF35F2E31D0B9
:10140000022935D001295CF82C1C49F20002C1F3F5
:10141000C101C0F2D03222FA01F101EE101A02EE3F
:10142000103AB8EE411AB8EE422A9FED4F3A81EEDB
:10143000021A02EE10EA20EE030AB8EE422A30EE5B
:10144000020AB7EE002A30EE022A5CF82C1C22EECB
:10145000010A09012CD527E00021C0E900118160B3
:1014600010BD00BF01EE103A9FED3E2A04E000BF20
:1014700001EE103A9FED3D2AB8EE411A82EE012AA4
:1014800001EE10EA9FED383AB8EE411A20EE030A59
:1014900030EE010AB7EE001A30EE011A5CF82C1C8F
:1014A00022EE010A090103D5DCF80010C90307D4B4
:1014B000002101605CF82C1C090118D41BE000BF5E
:1014C000DCF81010B7EE002AC1F3462101EE101A25
:1014D000B8EE411A31EE021A80EE011ABCEEC11AC2
:1014E00011EE101A01605CF82C1C090103D5DCF820
:1014F0000010890302D4002112E000BFDCF81010B4
:10150000B7EE002AC1F3064101EE101AB8EE411AF7
:1015100031EE021A80EE011ABCEEC11A11EE101A59
:1015200041605CF82C1C090144BFDCF800105FEA44
:10153000413103D40021816010BD00BFDCF81010E0
:10154000B7EE002AC1F3066101EE101AB8EE411A97
:1015500031EE021A80EE010ABCEEC00A10EE101A3B
:10156000816010BD20BCBE4B000000390024744ACD
:1015700080B584B04FF6FF730246C0F21F0300200F
:101580009B1A70EB010347DA6FF060439B1A70EB14
:101590000103C0F287806FF07C439B1A4FF0000379
:1015A0008B4180F2DD8082F080630B4300F08E81FE
:1015B00082F000630B4300F09F8182F08052114360
:1015C00040F0AC8240F60041C4F20241D1F8E000A4
:1015D000C0F3C202042A00F2C98248F20000C0F23D
:1015E000BB00DFE812F0D2029502C3029B020500A5
:1015F000D1F8E8200B6808689B0702F0404202D54A
:10160000002A00F04F83800540F12883B2F1804F1B
:1016100000F03B8322E300BF41F6FF739B1A70EB9F
:1016200001036BDA4FF6FF739B1A4FF000038B41F7
:1016300080F2D88082F480330B4300F0878182F4FB
:1016400000330B4300F09E8182F48022114340F06E
:10165000658240F60041C4F20241D1F8DC00C0F3DB
:1016600002320020052A00F25982DFE812F07302EC
:10167000510257029B02A302070000BFD1F8E820E5
:101680000B6808689B0702F0404202D5002A00F070
:101690000983800540F1E282B2F1804F00F0F582CB
:1016A000DCE200BF0F2940F3C58081F01003134333
:1016B00000F0828181F40073134300F09D8181F476
:1016C0008051114340F02A8240F60041C4F20241A9
:1016D000D1F8E40000F04062B2F1806F00F0FE81CA
:1016E000002A00F06381086880074FF0000040F195
:1016F0001582B2F1006F00F042810FE2D2F10303D4
:101700004FF000038B41C0F2B58082F001030B4320
:1017100000F0928182F00202114340F0FF8140F616
:101720000040C4F20240D0F8D81011F0380100F0A7
:1017300011820268120102D5082900F01B82036899
:1017400002689B0702D5182900F00082920502D595
:10175000202900F09A82D0F8F0002839B0E200BFCA
:1017600082F400130B4300F0878182F00072114372
:1017700040F0D48140F60041C4F20241D1F8F000BB
:10178000D1F8F020920700F4407206D5B2F5807FC0
:1017900002BF4FF4004004B080BDD1F8F00000015A
:1017A00006D5B2F5007F02BF4FF4FA4004B080BD09
:1017B000086880034FF0000040F1B081B2F5407F2F
:1017C00040F0AC81C86910F4785F00F0CF81C8693F
:1017D00047F64001C0F30520C0F27D11B1FBF0F0E7
:1017E00004B080BD82F400530B4300F05B8182F4AF
:1017F0008042114340F0928140F60040C4F2024022
:10180000D0F8E41001F44021B1F5802F00F066819A
:10181000002900F09F8102680068920703D5B1F5A6
:10182000002F00F03F8200F400720020B1F5402F3D
:1018300054E200BF82F000530B4300F0558181F069
:101840000401114340F06A8140F60040C4F20240B6
:10185000D0F8E8100068800301F4407040F1808106
:10186000002840F07D8147F64000C0F27D1004B0B2
:1018700080BD00BF82F004030B4300F0518182F46D
:101880008052114340F04A8140F60040C4F20240C9
:10189000D0F8E01001F0E061B1F1807F00F06A81E2
:1018A000002900F08380036802689B0703D5B1F12B
:1018B000407F00F04B81920503D5B1F1806F00F0BD
:1018C000E481D0F8F00001F17B41F9E140F60040FD
:1018D000C4F20240D0F8E810026801F0300192042E
:1018E00040F14E81002940F04B8146F60040C0F2A5
:1018F000DC2004B080BD00BF40F60041C4F20241CC
:10190000D1F8E00000F00702042A00F22F8148F22B
:101910000000C0F2BB00DFE812F03801FB00290133
:1019200001010500D1F8E8200B6808689B0702F068
:10193000404202D5002A00F0B581800540F18E8139
:10194000B2F1804F00F0A18188E100BF40F6004174
:10195000C4F20241D1F8E40000F04072B2F1807F9D
:1019600000F0BC80002A00F0F580086880074FF086
:10197000000040F1D380B2F1007F40F0CF800868D2
:1019800090E100BF40F60041C4F20241D1F8DC0012
:10199000C0F302220020052A00F2C080DFE812F026
:1019A0000600B800BE0002010A01500104B0BDE803
:1019B000804000F097BE00BF40F60040C4F20240F5
:1019C000D0F8E41001F03001102900F0DE80026848
:1019D000120102D5202900F0CD800068302900F4E2
:1019E00000524FF0000004BF46F60040C0F2DC2079
:1019F000002A08BF104691E040F60041C4F20241BF
:101A0000D1F8E800D1F8F02000F00800920705D5E1
:101A1000002802BF4FF4004004B080BDD1F8F010A0
:101A2000002818BF4FF4FA4001F00061002908BFF8
:101A3000084604B080BD00BF40F60040C4F202403A
:101A4000D0F8D81011F0070100F0A680026812014A
:101A500002D5012900F08E80036802689B0701D53A
:101A6000032973D0920502D5042900F00E81D0F825
:101A7000F000053924E100BF40F60040C4F2024006
:101A8000D0F8E81001F00701022927D0012900F061
:101A90009B80002940F09E8004B0BDE8804000F0AB
:101AA000C1BD00BF40F60040C4F20240D0F8E410CF
:101AB00001F44031B1F5803F10D000294AD00268CE
:101AC0000068920703D5B1F5003F00F0EB8000F409
:101AD00000720020B1F5403F00E100BF01A8FFF710
:101AE0006DFC039804B080BD40F60041C4F2024191
:101AF000D1F8E000C0F38212042A37D848F200007F
:101B0000C0F2BB00DFE802F04104320A8C0000BFE3
:101B100001A8FFF753FC019804B080BD04B080BD5C
:101B200040F60040C4F20240D0F8D81011F4E07141
:101B300010D00268120101D540291BD00368026849
:101B40009B0740F19D80C02940F09A80C2F3C100FC
:101B5000AAE000BF04B0BDE8804000F07BBD00BF3C
:101B6000B0F5007F06D0B0F5807F0ED0002004B025
:101B700080BD00BF01A8FFF721FC029804B080BD22
:101B80000268920132D5102930D101A8FFF73CFB41
:101B9000029804B080BD00BF04B0BDE8804000F0F2
:101BA0007DBD00BFD1F8F0004FF4004101EA803064
:101BB00004B080BDD1F8F0004FF4FA41000101EA11
:101BC000E07004B080BD00BF04B0BDE8804000F00C
:101BD000ADBD00BF026892035ED503295CD147F614
:101BE0004000C0F27D1004B080BD00BFD0F8F020EE
:101BF000920705D5202902BF4FF4004004B080BDF4
:101C0000D0F8F000302900F000624FF0000008BF6B
:101C10004FF4FA40002A08BF104604B080BD00BF50
:101C2000D1F8E8200B6808689B0702F0404200D515
:101C3000C2B3800512D5B2F1804F26D00EE000BFAE
:101C4000D1F8E8200B6808689B0702F0404200D5F5
:101C500042B3800502D5B2F1804F16D00868B2F1C8
:101C6000004F00F400314FF0000004BF47F6400081
:101C7000C0F27D10002908BF084604B080BD00BF37
:101C8000920519D5B1F5807F16D140F60010C0F24B
:101C90003D0004B080BD00BF02680068920719D5FE
:101CA000042917D1C0F3C10049F20001C0F2D031BC
:101CB00021FA00F004B080BDD0F8F000A1F5A071C9
:101CC00010F00200B1FA81F14FEA511118BFC803B8
:101CD00004B080BD00F400720020052904BF40F666
:101CE0000010C0F23D00002A08BF104604B080BDBD
:101CF0002DE9F0470446006840F62848C101C4F2C7
:101D0000024807D5D8F8C010226B21F0404111439A
:101D1000C8F8C010C00714D0606BC11E032909D3D6
:101D200040B1012814D104F1080001F0F1FD06468C
:101D300040B9606BD8F8B01021F007010843C8F82B
:101D4000B00000262078800706D4354622E000BF88
:101D5000012620788007F8D5A06B6FF0020101EB17
:101D6000F001354603290AD34FEAF000354630B179
:101D7000012831D104F1080001F0CAFD05462F46C3
:101D80004DB9D8F8B000A16B20F038000843002509
:101D9000C8F8B00037462078400722D5E06B6FF0D6
:101DA000020101EBB011032909D34FEAB01030B1A1
:101DB000012837D104F1080001F0AAFD05462E469E
:101DC00085B9D8F8B000E16B20F4E0700843002535
:101DD000C8F8B00005E000BF0125012720784007C2
:101DE000DCD43E466078C00621D5206C6FF002013D
:101DF00001EB3061032909D34FEA306030B101288B
:101E00003CD104F1080001F083FD05462F467DB961
:101E1000D8F8B800216C20F0E06008430025C8F82D
:101E2000B80004E0012501266078C006DDD43746FD
:101E30006078800627D5606C6FF0010101EB3041BE
:101E4000022909D34FEA304030B1012810D104F102
:101E5000080001F05DFD05462E465DB9D8F8BC00CE
:101E6000616C20F4403008430025C8F8BC000AE04B
:101E7000012501266078400609D424E001250127C8
:101E800060788006D7D43E46607840061BD5A06CAB
:101E90006FF0010101EBB041022909D34FEAB040D4
:101EA00030B1012832D104F1080001F031FD0546BE
:101EB0002F464DB9D8F8BC00A16C20F4402008434F
:101EC0000025C8F8BC003746A078C00723D0E06CD6
:101ED000002818BFB0F1007F0CD12E46E5B9D8F824
:101EE000BC00E16C20F0407008430025C8F8BC003D
:101EF00011E000BFB0F1807F30D104F1080001F0A3
:101F000007FD05462E463DB9E9E700BF012501273B
:101F1000A078C007DBD13E466079C00623D5206D8E
:101F2000002818BFB0F1006F0CD12F46E5B9D8F8E2
:101F3000BC00216D20F0406008430025C8F8BC00BB
:101F400011E000BFB0F1806F62D104F1080001F030
:101F5000DFFC05462F463DB9E9E700BF0125012614
:101F60006079C006DBD43746D4E9000140F61C4A4C
:101F7000C4F2024A09050CD5DAF8001021F4004138
:101F8000CAF80010D4F88010DAF800201143CAF81B
:101F9000001080031BD5606D6FF0020101EB302152
:101FA000032909D34FEA302030B1012834D104F19C
:101FB000080001F0ADFC05462E464DB9D8F8B40036
:101FC000616D20F4E06008430025C8F8B4003E4687
:101FD000A078400725D5A06D6FF0020101EB3031EC
:101FE000032909D34FEA303030B101282AD104F156
:101FF000080001F08DFC05462F469DB9D8F8B400C5
:10200000A16D20F4E04008430025C8F8B40008E0C2
:1020100001250127A8E700BF01250126A078400778
:10202000D9D43746A07880062BD5606E05280FD806
:10203000022815D02946DDB1D4E90002920525D445
:1020400033E000BF01250127A0788006EDD418E019
:1020500001250121D4E90002920517D425E000BF33
:1020600004F1080001F054FC0546002D2946E3D197
:10207000D8F8C000616E20F0070008430025C8F8BA
:10208000C0003946D4E9000292050ED5A26E42F096
:102090000803082B0ED1A94645B9D8F8C030002551
:1020A00023F008031A43C8F8C0208946800106D4EB
:1020B000484621E001254FF001098001F8D54FF68F
:1020C0000847CFF6FF775AF8070040F001004AF8BA
:1020D0000700FEF745FD06465AF80700C00707D17E
:1020E000FEF73EFD801B0228F6D90325032003E0FE
:1020F000002D284600F00E8121684A011BD5226E72
:102100006FF0010303EB3213022B0AD34FEA3213B1
:102110003BB1012B2ED1D8F8003043F40033C8F87E
:1021200000302F4645B9D8F8C030002523F03003E1
:102130001A43C8F8C020074608011FD5E06EC11E2B
:1021400002290BD3012800F0BB80002840F0C28098
:10215000D8F8000040F40030C8F800002E4675B9E9
:10216000D8F8B800E16E20F0070008430025C8F851
:10217000B80003E0012501270801DFD43E46E078DE
:10218000C0061FD5206F6FF0020101EBF00102299C
:102190000DD34FEAF000012800F0A080002840F0A5
:1021A000A780D8F8000040F40030C8F800002F469F
:1021B0004DB9D8F8B800216F20F038000843002549
:1021C000C8F8B8003746E07880061FD5606F6FF01A
:1021D000020101EBB01102290DD34FEAB010012822
:1021E00000F08A80002840F09180D8F8000040F488
:1021F0000030C8F800002E464DB9D8F8B800616F1D
:1022000020F4E07008430025C8F8B8003E46207965
:10221000400721D5E06D58B1B0F5007F0CD0B0F586
:10222000807F49D1D8F8000040F40030C8F80000A1
:102230002F4695B907E000BF04F1080001F068FBE4
:1022400005462F464DB9D8F8C000E16D20F4407026
:1022500008430025C8F8C00037462079C0065CBF97
:102260003846BDE8F087E06F30280CD020280FD02A
:1022700010281CBF0120BDE8F087D8F8000040F40A
:102280000030C8F8000055B12846BDE8F08700BF0F
:1022900004F1080001F03CFB0546002DF4D1D8F80C
:1022A000BC00E16F20F0300008433D46C8F8BC0098
:1022B0002846BDE8F08700BF01250127CDE700BF14
:1022C00004F1080001F024FB0546002D2E467FF4A2
:1022D00056AF45E70125012651E700BF04F108008C
:1022E00001F016FB0546002D2F467FF46CAF60E72A
:1022F0000125012767E700BF04F1080001F008FB92
:102300000546002D2E467FF482AF76E70125012693
:102310007DE700BFD8F8C80010F4407016D0A16F58
:10232000884211D0D8F8C800D8F8C81020F44070FE
:1023300041F48031C8F8C810D8F8C81021F48031B1
:10234000C8F8C810C8F8C800C00721D1A06FDAF8D3
:1023500000104FF6CF7300F4407221F47C51C0F2AC
:10236000FF0303EA1013B2F5407F08BF1943CAF810
:102370000010D8F8C8106FF31F3021F44071C8F86E
:10238000C810D8F8C81000250843C8F8C8008FE660
:10239000FEF7E6FB064641F288370325D8F8C80069
:1023A0008007D3D4FEF7DCFB801BB8424FF003005C
:1023B000F4D9A1E62DE9F04381B0002800F0CD80EA
:1023C00042F20008C4F202080446D8F800000D46A4
:1023D00000F00F0088420DD2D8F8000020F00F0066
:1023E0002843C8F80000D8F8000000F00F00A84209
:1023F00040F0B380206840F62047C106C4F202478F
:102400000CD561693A68702303EA1222914205D91A
:102410003A6822F4E04242EA0121396001070CD512
:1024200021693A68702303EA1212914205D93A6889
:1024300022F4E06242EA0111396041070AD5E168FD
:102440003A6802F07002914204D93A6822F07002B0
:102450001143396081070AD5A1683A6802F00F027A
:10246000914204D93A6822F00F0211433960C00743
:1024700068D1206881070AD5A1683A6802F00F0286
:10248000914204D23A6822F00F0211433960D8F821
:10249000001001F00F01A9420CD9D8F8001021F06A
:1024A0000F012943C8F80010D8F8001001F00F01FF
:1024B000A94252D141070AD5E1683A6802F0700298
:1024C000914204D23A6822F0700211433960010748
:1024D0000CD521693A68702303EA1212914205D2A1
:1024E0003A6822F4E06242EA01113960C0060CD574
:1024F00060693968702202EA1121884205D2396880
:1025000021F4E04141EA0020386000F00FF9396819
:1025100043F65C3201F00F01C0F60102525C40F25A
:102520000801C2F20001096840F23C0320FA02F2FD
:10253000C2F2000308461A6001B0BDE8F043FEF79E
:10254000CFBD00BF606801280CD002285ED00328F0
:1025500062D157F8201C890108D4012001B0BDE8E0
:10256000F08300BF57F8201C8905F6D557F8041CE6
:1025700021F00301084347F8040CFEF7F1FA616803
:102580000646032941F288392BD0022937D0012988
:1025900010D100BF57F8040C00F0180008283FF4D1
:1025A00068AFFEF7DDFA801B48454FF00300F1D914
:1025B0000DE000BF57F8040C10F0180F3FF459AFAE
:1025C000FEF7CEFA801B48454FF00300F2D901B068
:1025D000BDE8F083FEF7C4FA801B48454FF00300C6
:1025E000F5D857F8040C00F018001828F2D140E78D
:1025F000FEF7B6FA801B48454FF00300E7D857F8BE
:10260000040C00F018001028F2D132E757F8201C13
:102610008903A2D5AAE700BF57F8201C89079CD5DB
:10262000A4E7000080B500F081F840F62041C4F234
:102630000241096843F65C3201F00F01C0F6010265
:10264000515C01F01F01C84040F23C01C2F20001A0
:10265000086080BD80B500F069F840F62041C4F202
:1026600002410A6843F65C3302F00F02C0F6010330
:102670009A5C02F01F02D04040F23C02C2F200021B
:102680001060096843F66C32C1F30211C0F6010212
:10269000515C01F01F01C84080BD000080B500F012
:1026A00045F840F62041C4F202410A6843F65C3323
:1026B00002F00F02C0F601039A5C02F01F02D04044
:1026C00040F23C02C2F200021060096843F66C322C
:1026D000C1F30221C0F60102515C01F01F01C840A4
:1026E00080BD000080B500F021F840F62041C4F222
:1026F00002410A6843F65C3302F00F02C0F60103A0
:102700009A5C02F01F02D04040F23C02C2F200028A
:102710001060096843F66C32C1F30231C0F6010261
:10272000515C01F01F01C84080BD000080B540F63B
:102730000041C4F20241C86900F01800082802BF35
:1027400040F60010C0F23D0080BDC86910F0180FBF
:1027500034D0C86900F01800102802BF47F64000C6
:10276000C0F27D1080BDC86900F01800182849F239
:102770000000C0F2D03066D1D1F828E08A6AC2F3F6
:10278000052C8A6A8B6BBCF1000F04BF002080BD52
:10279000C2F30012C3F3CC0303FB02F200EE102AD3
:1027A0000EF00302B8EE400A032A15D0012A17D111
:1027B0000A68920618D49FED251A1DE00868800665
:1027C00049F20000C0F2D03058BF80BD0968C1F3A3
:1027D000C101C84080BD00BF9FED1B1A0CE000BFC7
:1027E0009FED1B1A08E000BF0A68C2F3C102D04087
:1027F00001EE100AB8EE411A02EE10CA486BB8EEAC
:10280000422A6FF35F2081EE021A02EE100A9FED5A
:10281000113AB8EE422A20EE030A486B30EE020A63
:10282000B7EE002AC0F3462030EE020A013021EE56
:10283000000A01EE100AB8EE411A80EE010ABCEE61
:10284000C00A10EE100A80BD20BCBE4B0024744CA0
:102850000024744A000000392DE9F04381B00028BB
:1028600000F0168140F6004740F6F0490446C4F2F5
:102870000247C4F20249F86959F8C81C227800F0EE
:102880001808D00601F0030629D5B8F1080F1BD0AF
:10289000B8F1180F08BF022E16D0E1693868002978
:1028A00000F0668140F480703860FEF759F9054603
:1028B000386880050CD4FEF753F9401B02284FF00E
:1028C0000300F5D95EE200BFE069002800F0E08077
:1028D000B869216A20F47C1040EA0140B861207890
:1028E000C00717D0B8F1100F10D0B8F1180F08BFFB
:1028F000032E0BD06068B0F5A02F5FDA002800F03F
:10290000A181B0F5803F00F0C181C3E1606800287B
:1029100000F0BE802078800775D5B8F1000F21D077
:10292000E068B8F1180F08BF012E55D039680028AB
:1029300000F06481206921F018010843386038688C
:1029400040F001003860FEF70BF905463868800753
:1029500052D4FEF705F9401B02284FF00300F5D9C9
:1029600010E200BFE068002800F09280396820691A
:1029700001F01801814231D0396821F01801084373
:102980003860FFF7D3FE396A43F65C3201F00F017D
:10299000C0F60102515C40F23C0201F01F0120FA36
:1029A00001F140F20800C2F200000068C2F2000229
:1029B0001160FEF795FB00286AD10FE000F05E8100
:1029C000B0F5A81F40F06681386840F48020386078
:1029D000386840F4801058E1002859D0FEF7C0F85C
:1029E000054600BF3868800706D4FEF7B9F8401BDB
:1029F0000228F7D965E000BF3869616920F4FE005C
:102A000040EA014038612078000745D4207840072B
:102A10005CD42078800600F17D80A56AA5B3B8F16A
:102A2000180F40F0C98059F8C81C59F8BC0C012D8A
:102A30002ED0E26A01F00303934229D1C1F30521AC
:102A4000226B914224D1626B01466FF35F21013A00
:102A500091421DD1A16BC0F3462201398A4217D1A0
:102A6000E16BC0F3064201398A4211D1216CC0F3F7
:102A70000660013988420BD159F8B80CE16CC0F3FB
:102A8000CC00884240F0F281002001B0BDE8F08324
:102A9000012001B0BDE8F083A169D9F80000002948
:102AA00050D040F08060C9F80000FEF759F80546A4
:102AB000D9F800000001A9D4FEF752F8401B022803
:102AC000F6D9032001B0BDE8F08300BF4FF62446DD
:102AD000CFF6FF76B859C00712D1B85940F00100BF
:102AE000B851FEF73DF80546B859C00708D1FEF7C2
:102AF00037F8401B02284FF00300F5D942E100BF30
:102B0000A068042846DC002800F0E080012800F0DE
:102B10000F8113E1616A3868002900F0818040F478
:102B200080503860FEF71CF8054600BF3868800406
:102B30003FF573AFFEF714F8401B02284FF0030077
:102B4000F4D91FE120F08060C9F80000FEF708F812
:102B5000054600BFD9F8000000017FF557AFFDF72B
:102B6000FFFF401B02284FF00300F3D90AE100BF2A
:102B700020F480703860FDF7F3FF05463868800563
:102B80007FF5ADAEFDF7ECFF401B02284FF00300D0
:102B9000F4D9F7E0052800F0BF80852840F0CE800A
:102BA000D9F8000040F00400C9F80000D9F800008E
:102BB00040F08000BAE000BF386820F080703860D4
:102BC000FDF7CEFF022D05460CD100BF386880010D
:102BD00040F1DC80FDF7C4FF401B02284FF00300EA
:102BE000F4D9CFE03868800140F13281FDF7B8FFB9
:102BF000401B02284FF00300F4D9C3E021F001008C
:102C00003860FDF7ADFF0546386880077FF5FBAEFD
:102C1000FDF7A6FF401B02284FF00300F4D9B1E0F6
:102C200020F480503860FDF79BFF0546386880042B
:102C30007FF5F3AEFDF794FF401B02284FF0030031
:102C4000F4D99FE0386820F480303860386820F488
:102C500080103860386820F480203860FDF780FFED
:102C6000054600BF386880037FF554AEFDF778FF56
:102C7000401B64284FF00300F4D983E0386840F427
:102C800080203860386820F480103860386840F45C
:102C900080300AE0386820F480303860386820F4EA
:102CA00080203860386820F480103860FDF758FFC5
:102CB000054600BF386880033FF52CAEFDF750FF96
:102CC000401B64284FF00300F4D95BE0D9F8000002
:102CD00020F00100C9F80000D9F8000020F08000C1
:102CE000C9F80000D9F8000020F00400C9F800007D
:102CF000FDF736FF054641F2883600BFD9F80000DF
:102D000080077FF586AEFDF72BFF401BB0424FF0EA
:102D10000300F3D936E000BFD9F8000040F004000A
:102D2000C9F80000D9F8000020F08000C9F80000C0
:102D3000D9F8000040F0010010E000BFD9F8000011
:102D400020F00100C9F80000D9F8000020F00400CC
:102D5000C9F80000D9F8000020F08000C9F8000090
:102D6000FDF7FEFE054641F2883600BFD9F80000A7
:102D700080073FF54EAEFDF7F3FE401BB0424FF02B
:102D80000300F3D901B0BDE8F08300BF59F8C80CC7
:102D900043F6037104F12C0388430ECB084340EA49
:102DA0000220A16B49F8C80C4FF47E4202EB41218E
:102DB000E26B581E4FF4FE0389B203EB02426FF33D
:102DC0005F20084402F4FE01226C4FF0FE4303EB47
:102DD0000262084402F0FE41084449F8BC0C59F86C
:102DE000C80C20F0100049F8C80CE06CC00049F88D
:102DF000B80C59F8C80C40F0100049F8C80C59F844
:102E0000C80C616C20F00C00084349F8C80C59F854
:102E1000C80CA16C20F02000084349F8C80C59F8F0
:102E2000C80C40F4803049F8C80C386840F0807015
:102E30003860FDF795FE0446386880013FF524AE02
:102E4000FDF78EFE001B02284FF00300F4D999E72E
:102E500059F8C80C4FF6FC71CFF6F871084049F8E4
:102E6000C80C002001B0BDE8F08300BF59F8C80CC1
:102E700020F0100049F8C80CFDF772FE0546FDF77A
:102E80006FFEA842FBD0E06CC00049F8B80C59F8BE
:102E9000C80C40F0100049F8C80C002001B0BDE893
:102EA000F0830000042888BF7047DFE800F00315B6
:102EB000273839004EF21000CEF20000016821F0F0
:102EC0000401016040F6E440C4F20240016821F0D0
:102ED0000C010160704700BF4EF21000CEF20000FE
:102EE0000168012221F00401016040F6E440C4F2CF
:102EF0000240016862F38301016070474EF21000E6
:102F0000CEF200000168022221F00401016040F6C7
:102F1000E440C4F20240016862F38301016070473B
:102F20004EF21000CEF20000016841F00401016091
:102F300070470000411E0020B0EB116F1CBF012044
:102F400070474EF21002CEF200025160906011689C
:102F500041F00301116070474EF21000CEF2000004
:102F60000068400744BF0420704740F6E440C4F2C4
:102F70000240006800F00C01081FB0FA80F0400920
:102F8000082908BF0220704790F88410012904BF67
:102F9000022070472421C0F8881002681168136865
:102FA00023F00103136021F00053002141661360F8
:102FB0002022C0F8882080F884100846704700005E
:102FC000B0B590F88420012A04BF0220B0BD2422AD
:102FD000C0F888200268D0F864E0D2F800C0136816
:102FE000BEF1000F23F001031360936823F06063C8
:102FF00041EA0301916019D09368916843F68C3ED1
:10300000490FC0F6010E43F694351EF80140C0F694
:103010000105C3F34263695CE400B4FBF1F11EF8FF
:103020000340EB5CE500B5FBF3F301E00121012374
:10303000A0F86A102021A0F86830C2F800C0C0F8DB
:103040008810002180F884100846B0BDB0B590F813
:103050008420012A04BF0220B0BD2422C0F88820A9
:103060000268D0F864E0D2F800C01368BEF1000F27
:1030700023F001031360936823F0604341EA0301E6
:10308000916019D09368916843F68C3E490FC0F661
:10309000010E43F694351EF80140C0F60105C3F356
:1030A0004263695CE400B4FBF1F11EF80340EB5CA1
:1030B000E500B5FBF3F301E001210123A0F86A105C
:1030C0002021A0F86830C2F800C0C0F888100021A4
:1030D00080F884100846B0BD10B5E0B10446D0F8C1
:1030E000880028B9002084F88400204600F028F8E1
:1030F0002420C4F888002068A16A0268002922F010
:10310000010202601CBF204600F0A8FD204600F02E
:10311000D1FE012802D1012010BD00BF21684868FE
:1031200020F490404860886820F02A008860086891
:1031300040F0010220460A60BDE8104000F002BEE7
:10314000704700002DE9F0410446D0F8880020289F
:103150001CBF0220BDE8F0810F4600294FF001009E
:103160001CBF1646002A01D1BDE8F08120681D462B
:103170008168090603D5816821F0800181604FF0E4
:1031800000082120C4F89080C4F88800FDF7E8FC0E
:10319000A4F85460A4F85660A1680646B1F5805FB3
:1031A00005D12069002814BF3846B8460746B4F850
:1031B0005600D8B1681C1BD0002D71D121680AE0DF
:1031C00017F8010B8862B4F856000138A4F85600CD
:1031D000B4F8560078B3C869000659D5002FEFD16E
:1031E00038F8020B00276FF35F20EBE7216822E03D
:1031F000216802E0C869000609D4C869000606D43F
:10320000C86900065CBFC8695FEA0060F2D51FB1FB
:1032100017F8010B05E000BF38F8020B00276FF329
:103220005F208862B4F856000138A4F85600B4F85C
:1032300056000028E1D1C869400623D445B3681C74
:1032400010D100BFC869400616D4C869400613D41F
:10325000C869400610D4C86940064FF00000F1D597
:1032600011E000BFFDF77CFC801BA84212D820684B
:103270000168C0694006F5D500202021C4F88810F7
:10328000BDE8F08100202021C4F88810BDE8F0815D
:10329000FDF766FC03202021C4F88810BDE8F0810A
:1032A000216800BFC869000608D4FDF759FC801BDF
:1032B000A842EFD821680868F4E700BF17B117F8F3
:1032C000010B04E038F8020B00276FF35F208862DF
:1032D000B4F856000138A4F85600B4F85600002897
:1032E000E0D1A8E7FEE7000070B504460068154687
:1032F0008369DA0602D40021002266E00E4610211E
:10330000C161816989065CD4711C50D036BBFDF760
:1033100027FC2068426894F8421083691B040BD58F
:1033200012F4804208D1202906D0416841F480413E
:103330004160FDF715FC054620688169890605D4C2
:10334000FDF70EFC401B1A28F6D328E08169890698
:10335000DDD536E020688169890632D4FDF700FCAE
:10336000401BB042F6D92068426894F84210836945
:103370001B040BD512F4804208D1202906D04168E5
:1033800041F480414160FDF7EBFB05462068806910
:103390008006DFD4FDF7E4FB401B1A28F6D3206833
:1033A00001228169242110E08169890609D481699B
:1033B000890606D4816989065CBF81695FEA8161FB
:1033C000F2D52021C161012204218369DE0505D5E2
:1033D0004FF4807241F00101C26101225E0507D401
:1033E0009B050CD4002A04BF002070BD0CE000BF78
:1033F00041F008014FF480629B05C26104D541F0A1
:1034000002014FF40072C2618269920744BF002238
:1034100082628269D20703D1826942F0010282612D
:1034200042684EF60003CFF600631A404260606CBB
:1034300008436064202084F84100002084F84200A2
:1034400084F84000012070BD2DE9F0410446006879
:1034500080690840401AB0FA80F04009904271D16A
:10346000DDF8188015460E461F46581C30D0002F38
:1034700042D100BF204600214246FFF735FF002819
:103480001CBF0120BDE8F081FDF76AFB206881695F
:103490003140891BB1FA81F14909A94242D08069C2
:1034A0003040801BB0FA80F04009A8421CBF0020C9
:1034B000BDE8F081DEE700BF206880693040801BF6
:1034C000B0FA80F04009A8421CBF0020BDE8F0819E
:1034D00020464FF0FF314246FFF706FF0028EBD0B1
:1034E0000120BDE8F08100BF80693040801BB0FA48
:1034F00080F04009A84225D1204639464246FFF7D0
:10350000F3FE0028ECD1FDF72BFBA0EB08012068AF
:10351000B942E9D981693140891BB1FA81F1490980
:10352000A942E1D1606C40F020006064202084F862
:103530004100002084F8420084F840000120BDE8EA
:10354000F08100BF0020BDE8F08100002DE9F04FC0
:1035500081B0044600684FF00008806900274007EA
:1035600049D44EF6000915468A464FF0200BCFF697
:10357000006900BF204651462A46FFF7B5FE216884
:1035800000288A69074618BF0127920619D5C0B9D5
:1035900088698869C00603D40027676411E000BF0A
:1035A0001020C86104206064C1F81CB0486801277D
:1035B00000EA0900486084F841B084F8428084F849
:1035C00040805646BAF1000F18BF0126FDF7C8FA31
:1035D000401B0021504598BF012120680E4208BFC2
:1035E000002F03D181690027490709D58069400769
:1035F00001D4002FBED0384601B0BDE8F08F00BF27
:10360000616C41F020016164202184F8411084F84C
:10361000407080690127384601B0BDE8F08F000096
:1036200070B5044600688069800637D415460E469A
:1036300019B92AE08069800630D4204631462A46EE
:10364000FFF752FE40BBFDF78BFA411B2068B142E9
:10365000F0D981698906EDD4606C40F02000606487
:10366000202084F84100002084F8420084F84000C3
:10367000012070BDFDF774FA206881698906EBD5D9
:103680008069800644BF002070BD204600212A4684
:10369000FFF72AFE0028EDD0012070BD002070BD8C
:1036A00070B504460068806980074DD415460E4603
:1036B000481C1DD04EBB00BF204600212A46FFF704
:1036C00013FE00281CBF012070BDFDF749FA2068D9
:1036D0008169890729D58069800744BF002070BDB2
:1036E000EAE700BF20688069800744BF002070BD02
:1036F00020464FF0FF312A46FFF7F6FD0028F1D0B3
:10370000012070BD806980071ED4204631462A46BC
:10371000FFF7EAFD0028F3D1FDF722FA411B2068EC
:10372000B142EFD981698907ECD4606C40F0200088
:103730006064202084F84100002084F8420084F86E
:103740004000012070BD00BF002070BD70B586B084
:10375000002640F68C400596C4F202400168002421
:1037600041F0010101600168C4F2022401F001018D
:10377000009100990168002241F002010160006897
:10378000042100F002000090009820460425FDF777
:10379000E1F90195012001ADCDE902062046294657
:1037A0000496FDF703F94FF48070CDE9010604F5A6
:1037B000806029460396FDF7F9F806B070BD000059
:1037C00070B50446002045F20041012248F6D3437B
:1037D000C4F20001C6F28003C4E90202C4E9040095
:1037E000C4E9060020622046C4E90013FDF72AFA66
:1037F000054620460021FDF7B9F90646204600217E
:10380000FDF7DAF93043284318BF012070BD0000EE
:1038100080B50020FDF716FC002818BFFDF730F832
:10382000FDF720FC002808BF80BDBDE88040FDF703
:1038300027B8000080B50020FCF7FAFD06A010F0C4
:103840006FF90020FCF782FF002808BF80BD0DA0A3
:1038500010F066F9FEE700BF564C35334C31434259
:103860002053696D706C652052616E67696E6720C8
:1038700064656D6F206170706C69636174696F6EEF
:1038800000000000435553544F4D5F52414E47498D
:103890004E475F53454E534F525F496E69742066E1
:1038A00061696C6564000000F0B581B043F6000208
:1038B00004464FF4E130C4F2010200210C23C4E9B4
:1038C00000202046C4E90211C4E90413C4E906112A
:1038D000C4E90811A162FFF7FFFB0546204600215D
:1038E000FFF7B4FB064620460021FFF769FB0746B9
:1038F0002046FFF749FB38433043284318BF0120D7
:1039000001B0F0BDFEE70000FEE7000070470000D8
:1039100070B540F62C46C4F2024656F82C1C0446FC
:1039200021F0806046F82C0CFDF71AF9054600BF1F
:1039300056F82C0C000107D5FDF712F9401B0228A0
:1039400084BF032070BDF3E7306843F603718843FA
:1039500094E80E00084340EA0220E16830604FF42A
:103960007E4202EB41212269581E4FF4FE0389B2C8
:1039700003EB02426FF35F20084402F4FE01626928
:103980004FF0FE4303EB0262084402F0FE4108449C
:1039900030613068A16920F00C0008433060306865
:1039A000E16920F0200008433060606A3168084314
:1039B000306030684FF6F87120F0100030607069A8
:1039C000226A884340EAC2007061306840F010000B
:1039D000306056F82C0C40F0806046F82C0CFDF757
:1039E000BFF8044656F82C0C000144BF002070BDFF
:1039F000FDF7B6F8001B032824BF032070BDF1E7D4
:103A0000704700002DE9F04788B0824646F65470B2
:103A10000AEB0009002020260329ADF81E000690BD
:103A2000CDE9040008BF4026082908BF40260C46FF
:103A30000220022A08BF0120511EA4F1010218BF72
:103A40000146082A4FF0F8003CD898461127DFE8D5
:103A500002F005090D1139391A15190020A0475C2B
:103A600011E000BF1DA0475C0DE000BF1AA0475C3D
:103A700009E000BF1BA0475C05E000BF15A0475C44
:103A800001E000BF272705A804AD00900DF11E023C
:103A900006AB50463946019509F0EAFD90B9DDE9DB
:103AA0000410BDF81E20069BCDF80880CDE900016A
:103AB000504639460FF07EF820B900208AF81B6086
:103AC00089F80040012140B289F8011008B0BDE832
:103AD000F08700BF242526000706080019181A00E1
:103AE000211E1B0002010300FDF7C6BA10B59CB0F1
:103AF00008A840F6140404302421C4F20244FCF760
:103B000044FC0020CDE90600CDE90400CDE9020027
:103B100054F8040C40F0300044F8040C54F8040C41
:103B200000F03000019001982068000709D4206857
:103B300000075CBF20685FEA007002D420680007BD
:103B4000F2D5102008904FF480700F9020200121B2
:103B50001090022014917D21CDE91200CDE91510BD
:103B6000CDE9170008201990002408A8CDE91A44CF
:103B7000FEF772FE10B172B6FEE700BF1F20029082
:103B80000320CDE9030402A80521CDE905440794EB
:103B9000FEF710FC10B172B6FEE700BF42F2000063
:103BA000C4F202000168022262F3051101601CB038
:103BB00010BD00004EF6885CCEF2000CDCF8000070
:103BC000012240F47000CCF8000040F60040C4F23E
:103BD000024002600022C261026203684EF6E321E5
:103BE000CFF6E2211940016040F28021C0F20111BC
:103BF0008262C26241638263C1630264016821F42C
:103C00008021016002654FF0006142F21C00C4F2A5
:103C100002004CF8801C50F8041C4A0F062A05D8F4
:103C200001F06041B1F1404F18BF70470168C9070A
:103C30000BD042F63B21C0F6190140F8101C46F6A5
:103C40007F61C4F65D4140F8101C016841F002013B
:103C50000160016841F001010160704780B5816A2F
:103C60000A070DD4CA0716D18A071FD44A0728D4D9
:103C7000CA0631D48A063AD44A0658D542E000BF73
:103C80000268D0F838C0536823F4004343EA0C03B9
:103C90005360CA07E8D00268D0F82CC0536823F4F8
:103CA000003343EA0C0353608A07DFD50268D0F87B
:103CB00030C0536823F4803343EA0C0353604A074F
:103CC000D6D50268D0F834C0536823F4802343EA81
:103CD0000C035360CA06CDD50268D0F83CC0936887
:103CE00023F4805343EA0C0393608A06C4D5026828
:103CF000D0F840C0936823F4005343EA0C03936068
:103D00004A0614D50268D0F844C05368BCF5801F39
:103D100023F4801343EA0C03536008D1D2F804C0A3
:103D2000D0F848E02CF4C00343EA0E0353600906C0
:103D300058BF80BD0168C06C4A6822F4002210435D
:103D4000486080BDB0B582B004460020C4F8900041
:103D5000FCF706FF216805460A68120737D56FF0A1
:103D60007E4C20464FF4001100222B46CDF800C0B7
:103D700000F078F950B300BF206850E8000F2168C8
:103D800020F0800041E80002DAB1206850E8000F1E
:103D9000216820F0800041E8000292B1206850E8DC
:103DA000000F216820F0800041E800024AB120683D
:103DB00050E8000F216820F0800041E80002002A4E
:103DC000DAD12020C4F8880060E000BF21680868CC
:103DD000400761D56FF07E4C20464FF480010022F1
:103DE0002B46CDF800C000F03DF9002854D000BFAC
:103DF000206850E8000F216820F4907041E800022C
:103E0000E2B1206850E8000F216820F4907041E88A
:103E100000029AB1206850E8000F216820F49070E9
:103E200041E8000252B1206850E8000F216820F4F8
:103E3000907041E80002002ADAD100BF206850E803
:103E4000020F216820F0010041E80202DAB1206887
:103E500050E8020F216820F0010041E8020292B10F
:103E6000206850E8020F216820F0010041E80202BA
:103E70004AB1206850E8020F216820F0010041E8B3
:103E80000202002ADAD12020C4F88C00032000218D
:103E900084F8841002B0B0BD2020C4F88800C4F8B3
:103EA0008C000020E0662067002184F8841002B0B6
:103EB000B0BD000070B504460168806804F10C05CF
:103EC0002CCD18432843E6690B6846F6F315CCF66B
:103ED000FF7530432B401843086048684FF2FF4598
:103EE00020F440501043486042F20042A069C4F2FE
:103EF000004291421CBF236A18438B68C1F2FF1530
:103F00002B4018438860C86A636A20F00F0018438A
:103F100043F2FF73C4F201039942C86210DC44F219
:103F20000040C4F20000814218D044F60000C4F200
:103F30000000814256D10420914216D155E000BFC5
:103F400043F60000C4F2010081420BD0914249D1F6
:103F50004FF48050914208D147E000BF02209142C7
:103F600003D142E0012091423FD00021FDF700FB48
:103F7000B6F5004F1ED1002864D0616A43F6743252
:103F8000C0F6010232F811106268B0FBF1F051087E
:103F900001EB4000B0FBF2F04FF6EF72A0F1100120
:103FA000914253D84FF6F071C0F3420208401044DA
:103FB00043E000BF002847D0616A43F67432C0F680
:103FC000010232F811106268B0FBF1F000EB520010
:103FD000B0FBF2F04FF6EF72A0F1100191422CD934
:103FE000012536E000209142BFD100210025FDF7D8
:103FF000BFFA70B3616A43F67432C0F6010232F858
:1040000011106268B0FBF1F002EB42010125884219
:104010001FD3110388421CD8010E000210EB52007E
:1040200041F100010023FCF735F94FF60052A0F5ED
:104030004071C0F20F0291420AD221680025C86087
:1040400007E000BF002504E0002502E0012500E0B4
:1040500001254FF00110A066002128466167A16785
:1040600070BD00002DE9F041804600681546C26928
:104070000E461140891BB1FA81F14909A94240F06D
:104080008380069C34B3611C2AD100BFC1693140D2
:10409000891BB1FA81F14909A94275D1C169314041
:1040A000891BB1FA81F14909A9426DD1C169314039
:1040B000891BB1FA81F14909A94265D1C169314031
:1040C000891BB1FA81F14909A9421CBF0020BDE852
:1040D000F081DBE7FCF744FD0320BDE8F08100BF81
:1040E0001F4607E0C0693040801BB0FA80F04009ED
:1040F000A84249D1FCF734FDC01BA04284BF032075
:10410000BDE8F081D8F8000001684907EAD5402EE3
:1041100018BF802EE6D0C169090739D4C1690905E5
:10412000E0D54FF40061016250E8000FD8F80010AC
:1041300020F4907041E80002002A5FD0D8F8000017
:1041400050E8000FD8F8001020F4907041E8000209
:10415000002A53D0D8F8000050E8000FD8F800101B
:1041600020F4907041E80002002A47D0D8F80000FF
:1041700050E8000FD8F8001020F4907041E80002D9
:10418000E2B3D8F80000CFE70020BDE8F08100BF1F
:104190000821016250E8000FD8F8001020F4907058
:1041A00041E80002002A00F09780D8F8000050E8AB
:1041B000000FD8F8001020F4907041E80002002AA7
:1041C00000F08A80D8F8000050E8000FD8F80010FE
:1041D00020F4907041E80002002A7DD0D8F8000059
:1041E00050E8000FD8F8001020F4907041E8000269
:1041F000002A71D0D8F80000CCE700BF4FF6FE705F
:10420000CEF6FF70D8F8001051E8021FD8F8002051
:10421000014042E80213F3B1D8F8001051E8021F40
:10422000D8F80020014042E80213A3B1D8F80010EA
:1042300051E8021FD8F80020014042E8021353B1B0
:10424000D8F8001051E8021FD8F80020014042E8D9
:104250000213002BD6D1D8F86C0001282CD1D8F845
:10426000000050E8000FD8F8001020F0100041E8DE
:1042700000020AB3D8F8000050E8000FD8F8001088
:1042800020F0100041E80002B2B1D8F8000050E878
:10429000000FD8F8001020F0100041E800025AB1D9
:1042A000D8F8000050E8000FD8F8001020F01000F7
:1042B00041E80002002AD2D120200021C8F88C0059
:1042C000C8F86C10C8F87410C8F89000032088F87B
:1042D0008410BDE8F08100BF4FF6FE70CEF6FF708F
:1042E000D8F8001051E8021FD8F80020014042E839
:1042F0000213F3B1D8F8001051E8021FD8F80020DB
:10430000014042E80213A3B1D8F8001051E8021F9F
:10431000D8F80020014042E8021353B1D8F8001049
:1043200051E8021FD8F80020014042E80213002B98
:10433000D6D1D8F86C0001282CD1D8F8000050E86C
:10434000000FD8F8001020F0100041E800020AB376
:10435000D8F8000050E8000FD8F8001020F0100046
:1043600041E80002B2B1D8F8000050E8000FD8F8D8
:10437000001020F0100041E800025AB1D8F8000007
:1043800050E8000FD8F8001020F0100041E80002BB
:10439000002AD2D12020C8F88C0000200821C8F8BB
:1043A0006C00C8F87400C8F8901088F884000120E8
:1043B000BDE8F081FEE7000046F294730122C118C7
:1043C000C254002048808A7288810A75C8828A7720
:1043D000088481F82820488581F83220888681F871
:1043E0003C20C88781F84620A1F8480081F8502079
:1043F000A1F8520081F85A20A1F85C0081F86420ED
:10440000A1F8660081F86E20A1F8700081F878208C
:10441000A1F87A0081F88220A1F8840081F88C202C
:10442000A1F88E0081F89620A1F89800704700004E
:1044300010220A70487040F20330042288800A81FA
:10444000A1F84800A1F84C20A1F88C00A1F8902018
:10445000A1F8D000A1F8D420A1F81401A1F81821E6
:10446000A1F85801A1F85C21A1F89C01A1F8A021B4
:10447000A1F8E001A1F8E421A1F82402A1F8282282
:10448000A1F86802A1F86C22A1F8AC02A1F8B02250
:10449000A1F8F002A1F8F422A1F83403A1F838231E
:1044A000A1F87803A1F87C23A1F8BC03A1F8C023EC
:1044B000A1F80004A1F80424704700006FF0030085
:1044C00070470000B0B5054600286FF001001CBF22
:1044D0000C46002900D1B0BD2178081FC0B2FD28CC
:1044E0003CBF6FF00100B0BD284601F05BFB40B956
:1044F00060684FF47A7100FB01F1284601F09EFBE1
:1045000010B14FF0FF30B0BDD4E9031246F674701D
:104510002844002918BF01210170002A18BF012278
:1045200042700020B0BD0000024600286FF001007C
:1045300018BF002900D1704780B592B009680120EA
:104540008DF80400CDF8051001A9104601F01CFCFF
:10455000002818BF4FF0FF3012B0BDE88040704710
:10456000B0B546F670750446405D012802D160681A
:10457000804718B14FF0FF30B0BD00BF6119002077
:104580000870B0BD024600286FF0010018BF002976
:1045900000D17047108908600020704700286FF034
:1045A000010018BF002901D1704700BF0122042378
:1045B0000020C1E90023C1E9022070472DE9F0473E
:1045C00082B0044600286FF001001CBF8A46002913
:1045D00002D102B0BDE8F08746F6717004EB000826
:1045E00098F80000B8B398F8010001281CD161695F
:1045F00000208DF80600884706460DF106074FF6A5
:10460000FF7500BF2046394600F0E2FC9DF8060029
:10461000012817D060698047801BA842F2D36FF051
:10462000020002B0BDE8F087616900208DF8070044
:1046300088470DF10701204600F0CAFC9DF80700ED
:1046400001280DD147F26829C2F2000920464946E7
:1046500000F03EFD60B14FF0FF3002B0BDE8F087E2
:10466000606980476FF0020002B0BDE8F08700BFCC
:1046700099F80630D3B198F8031098F8040001298E
:10468000CAF8043022D199F87B10012800EE101AE4
:10469000A3F10101B8EE400A03F0030C40F00481DD
:1046A000032980F0738200201EE300BFCAF80430A3
:1046B00098F8020001281EBF002002B0BDE8F08774
:1046C000204600F059FC02B0BDE8F087012840F018
:1046D000D38199F87B0003F0030C00EE100A581EFA
:1046E000B8EE400A03284FF0000178D30AF11C020B
:1046F00003F0FC009FEDDE1A9FEDDE2A09F1730343
:10470000C0F1000E0020164633F9575C46F8101F22
:1047100025EAE5750438ADB2D16042F8145C33F98E
:104720003B7CA3F1630595ED003A27EAE77513F8A2
:10473000547CADB242F8047C42F8105CA3F147050A
:1047400095ED004A13F8385CB8EE433A156033F93A
:104750001F5CB8EE444A25EAE57523EE013AADB296
:1047600024EE014A42F80C5CA3F12B0595ED005AAA
:1047700013F81C5CB8EE455A556033F9035C25EE1E
:10478000015A25EAE57523EE023AADB224EE024A5B
:1047900042F8085CA3F10F0595ED006A25EE025A78
:1047A000B8EE466A83EE003A26EE016A84EE004ACD
:1047B00026EE026A85EE005A86EE006A1D78516187
:1047C000916195607033864582ED073A82ED084A23
:1047D00082ED095A82ED0A6A324695D14142BCF116
:1047E000000F3FF465AFC1EBC1000AEB810309EB99
:1047F0008002BCF1010FB2F91C0020EAE07080B227
:10480000986092ED041AD27FB8EE412A9FED981A73
:104810004FF0000022EE013A9FED962A986223EEB7
:10482000023A9A6183EE003A83ED0E3A3FF440AFCC
:104830004A1CC2EBC2030AEB820209EB83039062BB
:10484000B3F91C70BCF1020F27EAE777BFB297609B
:1048500093ED043AD87FB8EE433A906123EE013AE3
:1048600023EE023A83EE003A82ED0E3A3FF420AF97
:10487000881CC0EBC0010AEB800009EB8101B1F993
:104880001C2022EAE27292B2826091ED043AC97F62
:10489000B8EE433A002223EE011A826221EE021A98
:1048A00081EE000AA1E200BF03294FF0000177D397
:1048B00003F0FC009FED6E1A9FED6E2A0AF11C02B8
:1048C00009F173034742002033F9576C043826EA94
:1048D000E676C2E90711B6B2516242F8146CA3F150
:1048E0005F0696ED003A33F93B6C13F8545C26EA08
:1048F000E67642F8045CB6B2B8EE433A42F8106C81
:10490000A3F1430696ED004A33F91F6C13F8385CA7
:1049100026EAE6761560B6B2B8EE444A42F80C6C68
:1049200033F9035CA3F1270696ED005A25EAE576F4
:1049300013F81C5CB6B2556042F8086CA3F10B0684
:1049400096ED006AB8EE455AB8EE466A23EE013A93
:1049500024EE014A25EE015A26EE016A23EE023AC0
:1049600024EE024A25EE025A26EE026A83EE003A4F
:1049700084EE004A85EE005A86EE006A1E78916247
:10498000966002F110067033874282ED033A82EDA1
:10499000044A82ED055A82ED066A324694D14142BC
:1049A000BCF1000F3FF484AEC1EBC1000AEB810300
:1049B00009EB8002BCF1010FB2F91C0020EAE070A3
:1049C00080B2986092ED051AD27FB8EE412A9FED31
:1049D000281A4FF0000022EE013A9FED262A986334
:1049E00023EE023A9A6183EE003A83ED0A3A3FF4ED
:1049F0005FAE4A1CC2EBC2030AEB820209EB8303DF
:104A00009063B3F91C70BCF1020F27EAE777BFB2DD
:104A1000976093ED053AD87FB8EE433A906123EE64
:104A2000013A23EE023A83EE003A82ED0A3A3FF46D
:104A30003FAE881CC0EBC0010AEB800009EB81018E
:104A4000B1F91C2022EAE27292B2826091ED053A3D
:104A5000C97FB8EE433A002223EE011A826321EEA9
:104A6000021A816181EE000A80ED0A0A20E600BF89
:104A70000000803700007A44581E03F0030C03281E
:104A80004FF0000140D30AF11C0603F0FC0009F1CD
:104A90007302C0F1000E0027304632F9575C40F82F
:104AA000101F25EAE575043FADB2F16046F8145CCD
:104AB00032F93B5C12F8543C25EAE57546F8043CB3
:104AC000ADB2F16146F8105C12F8383C32F91F5C67
:104AD000336025EAE57331629BB2716146F80C3CA4
:104AE00012F81C3C7162736032F9033CB16123EA35
:104AF000E373B1629BB2BE4546F8083C12F8703BC6
:104B0000B3600646C9D17942BCF1000F3FF4D0AD85
:104B1000C1EBC1000AEB810309EB8002BCF1010F7C
:104B2000B2F91C0020EAE07080B29860D27F4FF0AA
:104B30000000986298639A613FF4BAAD4A1CC2EBD8
:104B4000C2030AEB820209EB83039062B3F91C7083
:104B5000906327EAE777BCF1020FBFB29760D87F76
:104B600090613FF4A5AD881CC0EBC0010AEB80004A
:104B700009EB8101B1F91C2022EAE27292B2826053
:104B8000C97F002282628263816191E503F0FC00AB
:104B90009FED981A9FED982A0AF11C0109F1730202
:104BA0004342002732F9570C043F20EAE070BB4231
:104BB00080B241F8140CA2F15F0090ED003AA2F12E
:104BC000630090ED004A32F93B0C12F8546C20EA75
:104BD000E07041F8046C80B2B8EE433A41F8100C32
:104BE000A2F1430090ED005AA2F1470090ED006A57
:104BF00032F91F0C12F8386C20EAE0700E6080B2B7
:104C0000B8EE444A41F80C0CA2F1270090ED007A6E
:104C1000A2F12B00D0ED000A32F9030C12F81C6C43
:104C200020EAE0704E6080B2B8EE455A41F8080CB8
:104C3000A2F10B00D0ED001AA2F10F00D0ED002A76
:104C4000B8EE466AB8EE477AF8EE600AF8EE611AF6
:104C5000F8EE622A23EE013A24EE014A25EE015ACB
:104C600026EE016A27EE017A60EE810A61EE811A72
:104C700062EE812A23EE023A24EE024A25EE025A1F
:104C800026EE026A27EE027A60EE820A61EE821A4E
:104C900062EE822A83EE003A84EE004A85EE005AE4
:104CA00086EE006A87EE007AC0EE800AC1EE801AB6
:104CB000C2EE802A107802F17002886001F11000C3
:104CC00081ED033A81ED074A81ED045A81ED086ACE
:104CD00081ED057AC1ED090AC1ED061AC1ED0A2A76
:104CE00001467FF45FAF7842BCF1000F3FF4E0ACC7
:104CF000C0EBC0010AEB800309EB8101BCF1010F9D
:104D0000B1F91C2022EAE27292B29A6091ED051A82
:104D100091ED043AB8EE412A9FED361AB8EE433AC7
:104D200022EE014A9FED342A23EE013A24EE024A94
:104D300023EE023A84EE004A83EE003AC97F99617D
:104D400083ED0A4A83ED0E3A3FF4B2AC411CC1EB4D
:104D5000C1020AEB810109EB8202BCF1020FB2F938
:104D60001C3023EAE3739BB28B6092ED053A92ED1F
:104D7000044AB8EE433AB8EE444A23EE013A24EE30
:104D8000014A23EE023A24EE024A83EE003A84EE10
:104D9000004AD27F8A6181ED0A3A81ED0E4A3FF4E2
:104DA00087AC0230C0EBC0010AEB800009EB810147
:104DB000B1F91C2022EAE27292B2826091ED053ACA
:104DC00091ED044AB8EE433AB8EE444A23EE013A74
:104DD00024EE011A23EE023A21EE021A83EE002A93
:104DE000C97F81EE000A80ED0A2A80ED0E0A8161FA
:104DF0005EE400BF0000803700007A446FF00300DB
:104E000070470000B0B546F670750446405D78B94D
:104E1000204601F0F9F858B9204600F0B1F838B949
:104E2000204601F081F818B9204600F0BBFD18B10A
:104E30004FF0FF30B0BD00BF46F67172002061191F
:104E4000A318A050012218710A70B0BD0A460028AC
:104E50006FF0010118BF002A02D10846704700BF59
:104E600080B50021116040F20F1100F04FFE0146A5
:104E7000BDE8804008467047002804BF6FF001007D
:104E8000704780B5D1E90023D1F80CC0D1F810E00B
:104E9000002AC0E900230B8949690381C0E903CED8
:104EA0004161BDE8804004BF4FF0FF3070471047BC
:104EB000B0B5002804BF6FF00100B0BD0D46C9B207
:104EC000044600F065FE002812BF4FF0FF30258138
:104ED0000020B0BD6FF003007047000070B518B33C
:104EE000054646F671702E183078012804D0284601
:104EF0000C4600F0A1FF18B14FF0FF3070BD00BFAD
:104F000001203070284600F037F8611E032909D8C7
:104F1000DFE801F0020E121840F20111A6F80110AC
:104F200070BD00BF002030706FF0010070BD00BF89
:104F30000121A6F8011070BD4FF48071A6F8011090
:104F400070BD00BF0021A6F8011070BDB0B50028EB
:104F500004BF6FF00100B0BD46F671750446405DB8
:104F600018B1204601F03CF810B14FF0FF30B0BD51
:104F7000611900200870B0BDC17E01F03DBD000088
:104F800070B501210446012501F0B2FF002818BFC9
:104F900070BD46F65070261841F690500022211838
:104FA00022503069C1E90122C0F38F3120463570AB
:104FB0000DF0FAFD70693573C0F34F2120460DF0F6
:104FC000EDFD204602217573BDE870400DF0AABDCD
:104FD0000BF0CCBCB0B586B0054600200C468DF871
:104FE00017008DF816000490CDE9020008600DF15D
:104FF00017022846052108F0C3FB18B140B206B0DD
:10500000B0BD00BF0DF116022846062108F0B8FB1E
:105010000028F3D102A904AA03AB284608F002FC39
:105020000028EBD146F65470285C411E08294FF049
:10503000F800E3D8DFE801F00808101E06062A3061
:10504000080000BFDAE700BF039840F2A46100EB5C
:10505000400001EB400036E09DF81700039901285D
:105060004FEA41002CD09DF81610012928D045F2B6
:10507000604127E09DF817100398012909D09DF899
:105080001610012905D000F57A701CE0DDE9030156
:10509000084441F2883115E001AA284648F2880107
:1050A00008F0F6FB0198F52100FB01F100280398B8
:1050B00040F6D162C8BF01F6D16202EB400002E0C7
:1050C00046F2E87108442060002040B206B0B0BD4E
:1050D0002DE9F04FA9B0834641F290500C460BEBFE
:1050E000000608468021FF22FBF748F958460221B6
:1050F000324605F003FB18B140B229B0BDE8F08F8D
:1051000046F2EC500BEB000741F291500BEB00061E
:1051100030787178A0F10803B3FA83F35B095B0080
:1051200096F802C0072808BF0123727CE371617101
:1051300096F89501B6F90D10B6F90730A2711796D9
:1051400084F878009942B8BF0B4697F86A094FF087
:10515000000884F87E000BF2022000900BF501702D
:1051600001900BF5FF7003900BF5FE7002900BF5AC
:10517000FD7005900BF5FB7007900BF5FC70089027
:105180000BF5FA700B901046A4F87C30C4F8008040
:10519000189784F804C0002A08BF0120C0EBC000A3
:1051A000A64684000BF5F7700F900BF5F870119080
:1051B0000BF2262004900BF50A7006900BF22220C9
:1051C0000A900BF21E2009900BF508700C900BF55D
:1051D00007700E900BF21A20109000200BF5F97159
:1051E0004FF4AF5741F2D45A41F2EE564FF0000956
:1051F00020904FF0000C002000250D91CDF854E0D8
:1052000011461494CDE9232B0BE000BF09F11C09D2
:1052100001354C370AF14C0A4C4506F14C0600F0BA
:105220004583010640F08A8217980BEB0A03C27B84
:105230009BF85100239C21909BF82F04B3F9181080
:105240001A901BF80600229500F01F05CDF89C80EF
:10525000CDE91CC6C4B3B3F91440A846A0B2072DCB
:105260004FF0320533D00C1B952C30DCB3F91650BF
:1052700041F69A1605FB06F43BF80760B5F5967FF4
:10528000B8BF4FF4F0144CF6CD45C0F2300506FB24
:1052900005F606EB5406B6FBF4F64BF23334C0F2D7
:1052A0007504651CB5EB064F4FF03205A4EB0644C0
:1052B00088BFC4F30745642D28BF6425322D4FF005
:1052C000320698BF354602E0988AA84600250EEBC4
:1052D00009048EB225723BF80A109D884FEA412CD2
:1052E000690261613BF80710A0810020DB8AA0778A
:1052F000501E490203284FF00500CDF864A0C4F801
:1053000010C0A161A38366811E9703D20DF1970B94
:10531000454609E0112A0DF1970B454604D00D2AA8
:1053200040F0BA810D2000BF229A189FC2EBC20242
:10533000E0770EEB820202F11F082498C7F87C196F
:1053400028A9C7F880C908F077F918B197F870094B
:105350000BE000BFBDF8A00000280FBF00208003B5
:10536000C7F87409012087F8700985F0060180F0FC
:1053700001000843B0FA80F0400987F872092498C8
:105380000DF1A20108F052F910B197F871090AE085
:10539000BDF8A20000280FBF00204002C7F878091E
:1053A000012087F8710985F0040180F001000843AD
:1053B000B0FA80F0400987F8730998F800000026D9
:1053C00078B9B4F91C00B0F1FF3F0ADC40F20C01DF
:1053D000C2F2000149688142D2BFA6830E2088F83C
:1053E000000048F291002D3081B2249826AA08F0DE
:1053F0004FFAB9F1000F09D098F8000030B926989B
:10540000216981423CBF0C2088F80000249D48F2AD
:105410009101284627AA08F03BFA95F82F04A18BA2
:10542000169060691B91B0F5003F84F8206088BF3A
:1054300027962398A246249C0128CDF87C8009D188
:10544000219846F2DC512044405C012818BF279681
:1054500001E000BF27961A98219D4FEA9008204648
:1054600059462A464346002601F0EAFA9DF897007D
:105470005946012898BF2796C8F10100C3B22046BB
:105480002A4601F0DDFA9DF89710AC46012998BF35
:105490002796BAF90A80BAF90C301F9DA8EB0302CF
:1054A00029785446B2F5FA7F0ADDDDF890B000297C
:1054B00000F0EA80DDF864A0FF21297020E100BF40
:1054C000279ADDF890B0002A00F0E280DDF864A0B1
:1054D000072918BF042940F013810BEB0C0546F295
:1054E000BC52AA5C961F022E0AD3042A08D0002AB6
:1054F00040F0048146F2CC52AA5C012A40F0FE80C2
:105500009BF89F543A786E1E96421CBF05F17F06A9
:10551000964240F0F3809BF81920A2F11805062D61
:1055200000F2EC80DDF884C013930BEB4C06A38BE8
:1055300046F29C52B65A1A461A93169F9E1BBF08F3
:1055400033B21297DFE815F00800DC001C011C01E3
:10555000DC00DC00080000BFBBF9D651AB4209DD1E
:10556000BBF9D821934205DA169ADDF844E0042A03
:10557000C0F061816A4293420ADABBF9D8215242F3
:10558000934205DD129ADDF83CE0012A00F05381D8
:10559000BBF9DA51AB4209DDBBF9DC21934205DAF4
:1055A000129ADDF834E0012A00F045816A42934204
:1055B0000ADABBF9DC215242934205DD169ADDF886
:1055C0002CE0042AC0F03781BBF9DE51AB4209DD83
:1055D000BBF9E021934205DA169ADDF820E0042AAF
:1055E000C0F029816A4293420ADABBF9E0215242B3
:1055F000934205DD129ADDF81CE0012A00F01B81C0
:10560000BBF9E251AB4209DDBBF9E421934205DA73
:10561000129ADDF814E0012A00F00D816A429342EB
:105620000ADABBF9E4215242934205DD169ADDF80D
:1056300008E0042AC0F0FF80BBF9E821934206DAB3
:10564000BBF9E621DDF80CE0934200F3F480BBF9EE
:10565000EA51AB4209DDBBF9EC21934205DA169A17
:10566000DDF804E0042AC0F0E6806A42934247DA9B
:10567000BBF9EC215242934242DD129ADDF800E080
:10568000012A00F0D8803BE0DDF864A0002137E07B
:10569000DDF864A034E000BFA0460022239808F89B
:1056A0001F2F002860D0189F97F86809092800F27A
:1056B000D780012202FA00F040F20622104200F0E8
:1056C000CF806A1F122A00F2E1800420DFE812F086
:1056D000EB00DA001400DE00DC00DE00DE00DE009D
:1056E000DE00DE00DE00DE00DE00DE00E000140092
:1056F000DE00E200E40000BF0720D4E0DDF884C053
:105700000BF1180202EB4C031B9D46F28457DD534C
:10571000624446F2A453D15494F82010DDE91CC62B
:1057200046F2B453D154239BDDF854E0149C1E9FE1
:10573000229D46F2C4514FF0000853540EEB09016C
:105740000BEB0A02CB7F32F81A2C002BAEF87A2032
:105750007FF45CAD209BB1F91C101AB29142C4BF1A
:10576000AC460B46209351E5FF2088F8000041F637
:10577000FF70189F2261A261A0836081A081DCE597
:10578000BBF90652AB4208DDBBF90822934204DAAA
:10579000129ADDF840E0012A4DD06A42934209DABC
:1057A000BBF908225242934204DD169ADDF838E034
:1057B000042A40D3BBF90A52AB4208DDBBF90C22E4
:1057C000934204DA169ADDF830E0042A33D36A42B1
:1057D000934209DABBF90C225242934204DD129A39
:1057E000DDF824E0012A26D0BBF91022934205DA25
:1057F000BBF90E22DDF828E093421CDCBBF9125203
:10580000AB4208DDBBF91422934204DA169ADDF8A4
:1058100018E0042A0FD36A429342BFF671AFBBF976
:105820001422524293427FF76BAF129ADDF810E0D8
:10583000012A7FF465AF1FFA88F1BEF80020139BA0
:105840001A9F9BB21144DDF884C0618101211F9D24
:10585000D619134484F820100021A683A3812CE6D6
:105860002A1F0F2A12D80A20DFE802F00A180C08B3
:105870001A0E10101C10101010101D123CE700BF63
:10588000022010E001200EE000200CE0FF200AE0E2
:10589000062008E00B2006E00C2004E0042002E0D3
:1058A000032000E0092088F8000046E502069BF886
:1058B0009F14189A11707FF41FAC239900293FF4AC
:1058C0001BAC5FFA8CF0C0EBC00017990EEB8000A8
:1058D000B1F80B10C37F75465A1CD2B20E2A774618
:1058E00005D243F6811727FA02F2D20754D140F2CB
:1058F0000C02C2F200021769189ADBF8C86492F829
:105900006A2985F87E207BB100294FF003003BD047
:10591000BE4239DB022A23D0012A2BD108B240F241
:10592000DC5188420ADD11E0B0F91C00022A09D0DE
:10593000012A0DD140F2DC51884207DCB0F52F7FFF
:1059400021DC29E040F2DC5188420EDD03201BE01F
:10595000B0F5167F12DBB0F5AF6F1DD213E000BFBC
:1059600008B240F2DC518842F0DCB0F5167F13DA61
:1059700004E000BF08B2B0F5167F01DA012003E0B1
:10598000C808AE2808D8022085F87E00002040B262
:1059900029B0BDE8F08F00BF002040B229B0BDE8BB
:1059A000F08F00002DE9F0418EB0044646F65477A2
:1059B00040F20530E55DADF80C000DF12701204601
:1059C0000DF026F806461D3027D10DF10F082046B0
:1059D0002821062243460CF0E9FE0646E8B903AA50
:1059E00020461421022300F037FC0646A8B9BDF872
:1059F0000C0008F11002A4F8670020460D210623D0
:105A000000F02AFC064640B9BDF81F00DDF8211061
:105A10000026A4F86000C4F8621020460BF07CF861
:105A2000092D31D10020ADF836000C90CDE90A00E7
:105A30000BA804EB07080AAF00900DF136020CAB7F
:105A400020462721019707F013FEA0B9DDE90A706F
:105A5000BDF836200C9B4FF47A71009002912046DD
:105A6000272101970DF0A6F828B92020E07609201B
:105A700088F800000020012188F8011068B1304644
:105A80000EB0BDE8F08100BF2046294603224FF446
:105A90007A73FDF7B7FF0028F1D1E81EC0B20528E0
:105AA0008FBF48F2352143F64431C0F6010151F869
:105AB0002010204600F0C2F80028E0D120464FF424
:105AC00085610DF05BF830460EB0BDE8F081000056
:105AD000B0B514464ABA47F2D0010546C368C2F2CF
